{
  "contractName": "Company",
  "abi": [
    {
      "anonymous": false,
      "inputs": [
        {
          "indexed": false,
          "name": "_ownerAddress",
          "type": "address"
        },
        {
          "indexed": false,
          "name": "_storeAddress",
          "type": "address"
        }
      ],
      "name": "StoreAdded",
      "type": "event"
    },
    {
      "anonymous": false,
      "inputs": [
        {
          "indexed": false,
          "name": "_storeAddress",
          "type": "address"
        }
      ],
      "name": "StoreRemoved",
      "type": "event"
    },
    {
      "constant": false,
      "inputs": [
        {
          "name": "_storeAddress",
          "type": "address"
        }
      ],
      "name": "addStore",
      "outputs": [
        {
          "name": "",
          "type": "address[]"
        }
      ],
      "payable": false,
      "stateMutability": "nonpayable",
      "type": "function"
    },
    {
      "constant": false,
      "inputs": [
        {
          "name": "_storeAddress",
          "type": "address"
        }
      ],
      "name": "removeStore",
      "outputs": [],
      "payable": false,
      "stateMutability": "nonpayable",
      "type": "function"
    },
    {
      "constant": true,
      "inputs": [],
      "name": "readUserStores",
      "outputs": [
        {
          "name": "",
          "type": "address[]"
        }
      ],
      "payable": false,
      "stateMutability": "view",
      "type": "function"
    }
  ],
  "bytecode": "0x608060405234801561001057600080fd5b50610662806100206000396000f3fe608060405260043610610057576000357c0100000000000000000000000000000000000000000000000000000000900463ffffffff1680635f31c4be1461005c5780638dbe1a17146100c85780639157762314610119575b600080fd5b34801561006857600080fd5b506100716101bf565b6040518080602001828103825283818151815260200191508051906020019060200280838360005b838110156100b4578082015181840152602081019050610099565b505050509050019250505060405180910390f35b3480156100d457600080fd5b50610117600480360360208110156100eb57600080fd5b81019080803573ffffffffffffffffffffffffffffffffffffffff169060200190929190505050610289565b005b34801561012557600080fd5b506101686004803603602081101561013c57600080fd5b81019080803573ffffffffffffffffffffffffffffffffffffffff1690602001909291905050506103a6565b6040518080602001828103825283818151815260200191508051906020019060200280838360005b838110156101ab578082015181840152602081019050610190565b505050509050019250505060405180910390f35b60606000803373ffffffffffffffffffffffffffffffffffffffff1673ffffffffffffffffffffffffffffffffffffffff16815260200190815260200160002080548060200260200160405190810160405280929190818152602001828054801561027f57602002820191906000526020600020905b8160009054906101000a900473ffffffffffffffffffffffffffffffffffffffff1673ffffffffffffffffffffffffffffffffffffffff1681526020019060010190808311610235575b5050505050905090565b6000803373ffffffffffffffffffffffffffffffffffffffff1673ffffffffffffffffffffffffffffffffffffffff168152602001908152602001600020600160008373ffffffffffffffffffffffffffffffffffffffff1673ffffffffffffffffffffffffffffffffffffffff1681526020019081526020016000205481548110151561031357fe5b9060005260206000200160006101000a81549073ffffffffffffffffffffffffffffffffffffffff02191690557f8a3674246878227c5067d2b007a4bacdcade1cc2e8528c08c068d1987e99119c81604051808273ffffffffffffffffffffffffffffffffffffffff1673ffffffffffffffffffffffffffffffffffffffff16815260200191505060405180910390a150565b606060008060003373ffffffffffffffffffffffffffffffffffffffff1673ffffffffffffffffffffffffffffffffffffffff1681526020019081526020016000208054905090506000803373ffffffffffffffffffffffffffffffffffffffff1673ffffffffffffffffffffffffffffffffffffffff1681526020019081526020016000208390806001815401808255809150509060018203906000526020600020016000909192909190916101000a81548173ffffffffffffffffffffffffffffffffffffffff021916908373ffffffffffffffffffffffffffffffffffffffff1602179055505080600160008573ffffffffffffffffffffffffffffffffffffffff1673ffffffffffffffffffffffffffffffffffffffff168152602001908152602001600020819055507f984cf21ce998aef16bfdbce54b2c960e728f415509dbe06750aa7f277e52c0a43384604051808373ffffffffffffffffffffffffffffffffffffffff1673ffffffffffffffffffffffffffffffffffffffff1681526020018273ffffffffffffffffffffffffffffffffffffffff1673ffffffffffffffffffffffffffffffffffffffff1681526020019250505060405180910390a16000803373ffffffffffffffffffffffffffffffffffffffff1673ffffffffffffffffffffffffffffffffffffffff16815260200190815260200160002080548060200260200160405190810160405280929190818152602001828054801561062957602002820191906000526020600020905b8160009054906101000a900473ffffffffffffffffffffffffffffffffffffffff1673ffffffffffffffffffffffffffffffffffffffff16815260200190600101908083116105df575b505050505091505091905056fea165627a7a723058207508a3e623a76ea82a0a078a8e2ce0ff4994efb12885f67bfbd8ddd43b68e6ea0029",
  "source": "pragma solidity ^0.5.0;\n\ncontract Company {\n    // mapping of user addresses to store contracts (a list because one2many)\n    mapping(address => address[]) stores;\n\n    // helper mapping to store stores indexes in array of stores\n    mapping(address => uint256) indexes;\n\n    event StoreAdded(address _ownerAddress, address _storeAddress);\n    event StoreRemoved(address _storeAddress);\n\n    function addStore(address _storeAddress) public returns(address[] memory) {\n        uint256 index = stores[msg.sender].length;\n        stores[msg.sender].push(_storeAddress);\n        indexes[_storeAddress] = index;\n        emit StoreAdded(msg.sender, _storeAddress);\n        return stores[msg.sender];\n    }\n\n    function removeStore(address _storeAddress) public {\n        delete stores[msg.sender][indexes[_storeAddress]];\n        emit StoreRemoved(_storeAddress);\n    }\n\n    function readUserStores() public view returns(address[] memory) {\n        return stores[msg.sender];\n    }\n}",
  "sourcePath": "/Users/fran/ws/block/project/blockchain/contracts/Company.sol",
  "compiler": {
    "name": "solc",
    "version": "0.5.0+commit.1d4f565a.Emscripten.clang"
  },
  "schemaVersion": "3.0.11",
  "updatedAt": "2019-08-01T05:17:07.785Z",
  "devdoc": {
    "methods": {}
  },
  "userdoc": {
    "methods": {}
  }
}