{
  "contractName": "Store",
  "abi": [
    {
      "constant": true,
      "inputs": [],
      "name": "storeName",
      "outputs": [
        {
          "name": "",
          "type": "string"
        }
      ],
      "payable": false,
      "stateMutability": "view",
      "type": "function"
    },
    {
      "inputs": [
        {
          "name": "_name",
          "type": "string"
        }
      ],
      "payable": false,
      "stateMutability": "nonpayable",
      "type": "constructor"
    },
    {
      "anonymous": false,
      "inputs": [
        {
          "indexed": false,
          "name": "_name",
          "type": "string"
        },
        {
          "indexed": false,
          "name": "_role",
          "type": "uint8"
        }
      ],
      "name": "RegisteredNewUser",
      "type": "event"
    },
    {
      "constant": false,
      "inputs": [
        {
          "name": "_resp",
          "type": "address"
        },
        {
          "name": "_name",
          "type": "string"
        }
      ],
      "name": "registerManager",
      "outputs": [],
      "payable": false,
      "stateMutability": "nonpayable",
      "type": "function"
    },
    {
      "constant": false,
      "inputs": [
        {
          "name": "_resp",
          "type": "address"
        },
        {
          "name": "_name",
          "type": "string"
        }
      ],
      "name": "registerEmployee",
      "outputs": [],
      "payable": false,
      "stateMutability": "nonpayable",
      "type": "function"
    },
    {
      "constant": false,
      "inputs": [
        {
          "name": "_name",
          "type": "string"
        }
      ],
      "name": "modifyStoreName",
      "outputs": [],
      "payable": false,
      "stateMutability": "nonpayable",
      "type": "function"
    },
    {
      "constant": false,
      "inputs": [
        {
          "name": "_resp",
          "type": "address"
        },
        {
          "name": "_name",
          "type": "string"
        }
      ],
      "name": "registerClient",
      "outputs": [],
      "payable": false,
      "stateMutability": "nonpayable",
      "type": "function"
    },
    {
      "constant": true,
      "inputs": [
        {
          "name": "_user",
          "type": "address"
        }
      ],
      "name": "retrieveUser",
      "outputs": [
        {
          "name": "name",
          "type": "string"
        },
        {
          "name": "role",
          "type": "uint8"
        },
        {
          "name": "responsible",
          "type": "address"
        }
      ],
      "payable": false,
      "stateMutability": "view",
      "type": "function"
    }
  ],
  "bytecode": "0x60806040526040805190810160405280600981526020017f4e45575f53544f524500000000000000000000000000000000000000000000008152506000908051906020019062000051929190620006bf565b503480156200005f57600080fd5b5060405162001baa38038062001baa833981018060405260208110156200008557600080fd5b8101908080516401000000008111156200009e57600080fd5b82810190506020810184811115620000b557600080fd5b8151856001820283011164010000000082111715620000d357600080fd5b5050929190505050620000f833826000620000ff640100000000026401000000009004565b5062000839565b6200011e826200031c6401000000000262000ec7176401000000009004565b6200012862000746565b82816000018190525083816040019073ffffffffffffffffffffffffffffffffffffffff16908173ffffffffffffffffffffffffffffffffffffffff168152505081816020019060038111156200017b57fe5b908160038111156200018957fe5b8152505080600160003373ffffffffffffffffffffffffffffffffffffffff1673ffffffffffffffffffffffffffffffffffffffff1681526020019081526020016000206000820151816000019080519060200190620001eb9291906200078a565b5060208201518160010160006101000a81548160ff021916908360038111156200021157fe5b021790555060408201518160010160016101000a81548173ffffffffffffffffffffffffffffffffffffffff021916908373ffffffffffffffffffffffffffffffffffffffff1602179055509050507f327c0adbe7bc4c23fa3bea26fe81005e322fe89908f1b6f5cfae2d5802daecd9838360405180806020018360038111156200029857fe5b60ff168152602001828103825284818151815260200191508051906020019080838360005b83811015620002da578082015181840152602081019050620002bd565b50505050905090810190601f168015620003085780820380516001836020036101000a031916815260200191505b50935050505060405180910390a150505050565b6000806020830191508251905060008114156200033b57505062000383565b60008090505b8181101562000370576200036681840162000386640100000000026401000000009004565b8101905062000341565b81811415156200037f57600080fd5b5050505b50565b6000808251905060e081908060020a820491505090506000601882908060020a82049150509050607f81111515620003c25760019250620005cb565b8060c211158015620003d5575060df8111155b156200041b576000601062ff00008416908060020a820491505090508060801115801562000404575060bf8111155b15156200041057600080fd5b6002935050620005ca565b60e08114156200045e5762000454600862ffff008416908060020a820491505060a060bf620005d2640100000000026401000000009004565b60039250620005c9565b60ed811415620004a15762000497600862ffff008416908060020a82049150506080609f620005d2640100000000026401000000009004565b60039250620005c8565b8060e111158015620004b4575060ec8111155b80620004c0575060ee81145b80620004cc575060ef81145b156200050b5762000501600862ffff008416908060020a8204915050608060bf620005d2640100000000026401000000009004565b60039250620005c7565b60f081141562000542576200053862ffffff8316609060bf6200062f640100000000026401000000009004565b60049250620005c6565b8060f11115801562000555575060f38111155b1562000588576200057e62ffffff8316608060bf6200062f640100000000026401000000009004565b60049250620005c5565b60f4811415620005bf57620005b562ffffff83166080608f6200062f640100000000026401000000009004565b60049250620005c4565b600080fd5b5b5b5b5b5b5b5b5050919050565b6000600861ff008516908060020a82049150509050808311158015620005f85750818111155b15156200060457600080fd5b60ff84169050806080111580156200061d575060bf8111155b15156200062957600080fd5b50505050565b6000601062ff00008516908060020a82049150509050808311158015620006565750818111155b15156200066257600080fd5b600861ff008516908060020a820491505090508060801115801562000688575060bf8111155b15156200069457600080fd5b60ff8416905080608011158015620006ad575060bf8111155b1515620006b957600080fd5b50505050565b828054600181600116156101000203166002900490600052602060002090601f016020900481019282601f106200070257805160ff191683800117855562000733565b8280016001018555821562000733579182015b828111156200073257825182559160200191906001019062000715565b5b50905062000742919062000811565b5090565b60606040519081016040528060608152602001600060038111156200076757fe5b8152602001600073ffffffffffffffffffffffffffffffffffffffff1681525090565b828054600181600116156101000203166002900490600052602060002090601f016020900481019282601f10620007cd57805160ff1916838001178555620007fe565b82800160010185558215620007fe579182015b82811115620007fd578251825591602001919060010190620007e0565b5b5090506200080d919062000811565b5090565b6200083691905b808211156200083257600081600090555060010162000818565b5090565b90565b61136180620008496000396000f3fe608060405260043610610078576000357c0100000000000000000000000000000000000000000000000000000000900463ffffffff168063269faaf41461007d578063521936e61461016557806369057b28146101f557806370b9008a14610307578063a3a57ea3146103cf578063f2fef58b146104b7575b600080fd5b34801561008957600080fd5b50610163600480360360408110156100a057600080fd5b81019080803573ffffffffffffffffffffffffffffffffffffffff169060200190929190803590602001906401000000008111156100dd57600080fd5b8201836020820111156100ef57600080fd5b8035906020019184600183028401116401000000008311171561011157600080fd5b91908080601f016020809104026020016040519081016040528093929190818152602001838380828437600081840152601f19601f82011690508083019250505050505050919291929050505061059f565b005b34801561017157600080fd5b5061017a61068d565b6040518080602001828103825283818151815260200191508051906020019080838360005b838110156101ba57808201518184015260208101905061019f565b50505050905090810190601f1680156101e75780820380516001836020036101000a031916815260200191505b509250505060405180910390f35b34801561020157600080fd5b506102446004803603602081101561021857600080fd5b81019080803573ffffffffffffffffffffffffffffffffffffffff16906020019092919050505061072b565b604051808060200184600381111561025857fe5b60ff1681526020018373ffffffffffffffffffffffffffffffffffffffff1673ffffffffffffffffffffffffffffffffffffffff168152602001828103825285818151815260200191508051906020019080838360005b838110156102ca5780820151818401526020810190506102af565b50505050905090810190601f1680156102f75780820380516001836020036101000a031916815260200191505b5094505050505060405180910390f35b34801561031357600080fd5b506103cd6004803603602081101561032a57600080fd5b810190808035906020019064010000000081111561034757600080fd5b82018360208201111561035957600080fd5b8035906020019184600183028401116401000000008311171561037b57600080fd5b91908080601f016020809104026020016040519081016040528093929190818152602001838380828437600081840152601f19601f8201169050808301925050505050505091929192905050506109d2565b005b3480156103db57600080fd5b506104b5600480360360408110156103f257600080fd5b81019080803573ffffffffffffffffffffffffffffffffffffffff1690602001909291908035906020019064010000000081111561042f57600080fd5b82018360208201111561044157600080fd5b8035906020019184600183028401116401000000008311171561046357600080fd5b91908080601f016020809104026020016040519081016040528093929190818152602001838380828437600081840152601f19601f820116905080830192505050505050509192919290505050610aca565b005b3480156104c357600080fd5b5061059d600480360360408110156104da57600080fd5b81019080803573ffffffffffffffffffffffffffffffffffffffff1690602001909291908035906020019064010000000081111561051757600080fd5b82018360208201111561052957600080fd5b8035906020019184600183028401116401000000008311171561054b57600080fd5b91908080601f016020809104026020016040519081016040528093929190818152602001838380828437600081840152601f19601f820116905080830192505050505050509192919290505050610bb7565b005b600160038111156105ac57fe5b600160003373ffffffffffffffffffffffffffffffffffffffff1673ffffffffffffffffffffffffffffffffffffffff16815260200190815260200160002060010160009054906101000a900460ff16600381111561060757fe5b1115151561067d576040517f08c379a000000000000000000000000000000000000000000000000000000000815260040180806020018281038252601f8152602001807f73656e646572206973206e6f74206d616e61676572206e6f72206f776e65720081525060200191505060405180910390fd5b61068982826002610ccb565b5050565b60008054600181600116156101000203166002900480601f0160208091040260200160405190810160405280929190818152602001828054600181600116156101000203166002900480156107235780601f106106f857610100808354040283529160200191610723565b820191906000526020600020905b81548152906001019060200180831161070657829003601f168201915b505050505081565b60606000806002600381111561073d57fe5b600160003373ffffffffffffffffffffffffffffffffffffffff1673ffffffffffffffffffffffffffffffffffffffff16815260200190815260200160002060010160009054906101000a900460ff16600381111561079857fe5b11151515610834576040517f08c379a00000000000000000000000000000000000000000000000000000000081526004018080602001828103825260268152602001807f73656e64657220646f6573206e6f742062656c6f6e6720746f2074686520627581526020017f73696e657373000000000000000000000000000000000000000000000000000081525060400191505060405180910390fd5b600160008573ffffffffffffffffffffffffffffffffffffffff1673ffffffffffffffffffffffffffffffffffffffff168152602001908152602001600020600001600160008673ffffffffffffffffffffffffffffffffffffffff1673ffffffffffffffffffffffffffffffffffffffff16815260200190815260200160002060010160009054906101000a900460ff16600160008773ffffffffffffffffffffffffffffffffffffffff1673ffffffffffffffffffffffffffffffffffffffff16815260200190815260200160002060010160019054906101000a900473ffffffffffffffffffffffffffffffffffffffff16828054600181600116156101000203166002900480601f0160208091040260200160405190810160405280929190818152602001828054600181600116156101000203166002900480156109be5780601f10610993576101008083540402835291602001916109be565b820191906000526020600020905b8154815290600101906020018083116109a157829003601f168201915b505050505092509250925092509193909250565b600160038111156109df57fe5b600160003373ffffffffffffffffffffffffffffffffffffffff1673ffffffffffffffffffffffffffffffffffffffff16815260200190815260200160002060010160009054906101000a900460ff166003811115610a3a57fe5b11151515610ab0576040517f08c379a000000000000000000000000000000000000000000000000000000000815260040180806020018281038252601f8152602001807f73656e646572206973206e6f74206d616e61676572206e6f72206f776e65720081525060200191505060405180910390fd5b8060009080519060200190610ac69291906111cd565b5050565b60006003811115610ad757fe5b600160003373ffffffffffffffffffffffffffffffffffffffff1673ffffffffffffffffffffffffffffffffffffffff16815260200190815260200160002060010160009054906101000a900460ff166003811115610b3257fe5b141515610ba7576040517f08c379a00000000000000000000000000000000000000000000000000000000081526004018080602001828103825260138152602001807f73656e646572206973206e6f74206f776e65720000000000000000000000000081525060200191505060405180910390fd5b610bb382826001610ccb565b5050565b60026003811115610bc457fe5b600160003373ffffffffffffffffffffffffffffffffffffffff1673ffffffffffffffffffffffffffffffffffffffff16815260200190815260200160002060010160009054906101000a900460ff166003811115610c1f57fe5b11151515610cbb576040517f08c379a00000000000000000000000000000000000000000000000000000000081526004018080602001828103825260268152602001807f73656e64657220646f6573206e6f742062656c6f6e6720746f2074686520627581526020017f73696e657373000000000000000000000000000000000000000000000000000081525060400191505060405180910390fd5b610cc782826003610ccb565b5050565b610cd482610ec7565b610cdc61124d565b82816000018190525083816040019073ffffffffffffffffffffffffffffffffffffffff16908173ffffffffffffffffffffffffffffffffffffffff16815250508181602001906003811115610d2e57fe5b90816003811115610d3b57fe5b8152505080600160003373ffffffffffffffffffffffffffffffffffffffff1673ffffffffffffffffffffffffffffffffffffffff1681526020019081526020016000206000820151816000019080519060200190610d9b929190611290565b5060208201518160010160006101000a81548160ff02191690836003811115610dc057fe5b021790555060408201518160010160016101000a81548173ffffffffffffffffffffffffffffffffffffffff021916908373ffffffffffffffffffffffffffffffffffffffff1602179055509050507f327c0adbe7bc4c23fa3bea26fe81005e322fe89908f1b6f5cfae2d5802daecd983836040518080602001836003811115610e4657fe5b60ff168152602001828103825284818151815260200191508051906020019080838360005b83811015610e86578082015181840152602081019050610e6b565b50505050905090810190601f168015610eb35780820380516001836020036101000a031916815260200191505b50935050505060405180910390a150505050565b600080602083019150825190506000811415610ee4575050610f18565b60008090505b81811015610f0657610efd818401610f1b565b81019050610eea565b8181141515610f1457600080fd5b5050505b50565b6000808251905060e081908060020a820491505090506000601882908060020a82049150509050607f81111515610f5557600192506110e3565b8060c211158015610f67575060df8111155b15610fa9576000601062ff00008416908060020a8204915050905080608011158015610f94575060bf8111155b1515610f9f57600080fd5b60029350506110e2565b60e0811415610fd957610fd0600862ffff008416908060020a820491505060a060bf6110ea565b600392506110e1565b60ed81141561100957611000600862ffff008416908060020a82049150506080609f6110ea565b600392506110e0565b8060e11115801561101b575060ec8111155b80611026575060ee81145b80611031575060ef81145b1561105d57611054600862ffff008416908060020a8204915050608060bf6110ea565b600392506110df565b60f08114156110815761107862ffffff8316609060bf611143565b600492506110de565b8060f111158015611093575060f38111155b156110b3576110aa62ffffff8316608060bf611143565b600492506110dd565b60f48114156110d7576110ce62ffffff83166080608f611143565b600492506110dc565b600080fd5b5b5b5b5b5b5b5b5050919050565b6000600861ff008516908060020a8204915050905080831115801561110f5750818111155b151561111a57600080fd5b60ff8416905080608011158015611132575060bf8111155b151561113d57600080fd5b50505050565b6000601062ff00008516908060020a820491505090508083111580156111695750818111155b151561117457600080fd5b600861ff008516908060020a8204915050905080608011158015611199575060bf8111155b15156111a457600080fd5b60ff84169050806080111580156111bc575060bf8111155b15156111c757600080fd5b50505050565b828054600181600116156101000203166002900490600052602060002090601f016020900481019282601f1061120e57805160ff191683800117855561123c565b8280016001018555821561123c579182015b8281111561123b578251825591602001919060010190611220565b5b5090506112499190611310565b5090565b606060405190810160405280606081526020016000600381111561126d57fe5b8152602001600073ffffffffffffffffffffffffffffffffffffffff1681525090565b828054600181600116156101000203166002900490600052602060002090601f016020900481019282601f106112d157805160ff19168380011785556112ff565b828001600101855582156112ff579182015b828111156112fe5782518255916020019190600101906112e3565b5b50905061130c9190611310565b5090565b61133291905b8082111561132e576000816000905550600101611316565b5090565b9056fea165627a7a723058202d7201e71c696a85290b02e9fdd043fbe425f8c12126e8d8b10e07933f28b8760029",
  "source": "pragma solidity ^0.5.0;\n\nimport {Strings} from \"../libraries/Strings.sol\";\n\ncontract Store {\n\n    string public storeName = 'NEW_STORE';\n\n    // an enum because permissions are decreasing with the index\n    enum Role {OWNER, MANAGER, EMPLOYEE, CLIENT}\n\n    // a name and role, just to know who we're talking to, and a responsible, the person that registers\n    struct User {\n        string name;\n        Role role;\n        address responsible;\n    }\n\n    // the main storage of this contract: a mapping of addresses to user objects\n    mapping(address => User) users;\n\n    // an event to help debugging / hook into\n    event RegisteredNewUser(string _name, Role _role);\n\n    // one contract per store. even the owner is required to have a name - we're pretty familiar\n    constructor(string memory _name) public {\n        registerUser(msg.sender, _name, Role.OWNER);\n    }\n\n    // rejects non-owners\n    modifier canOwner() {\n        require(users[msg.sender].role == Role.OWNER, 'sender is not owner');\n        _;\n    }\n\n    // rejects clients or users not registered\n    modifier canManager() {\n        require(users[msg.sender].role <= Role.MANAGER, 'sender is not manager nor owner');\n        _;\n    }\n\n    // rejects clients or users not registered\n    modifier canEmployee() {\n        require(users[msg.sender].role <= Role.EMPLOYEE, 'sender does not belong to the business');\n        _;\n    }\n\n    // only owners can register managers\n    function registerManager(address _resp, string memory _name)\n        public canOwner\n    {\n        registerUser(_resp, _name, Role.MANAGER);\n    }\n\n    // only managers (or owners) can register employees\n    function registerEmployee(address _resp, string memory _name)\n        public canManager\n    {\n        registerUser(_resp, _name, Role.EMPLOYEE);\n    }\n\n    // only managers (or owners) can register employees\n    function modifyStoreName(string memory _name)\n        public canManager\n    {\n        storeName = _name;\n    }\n\n    // only managers (or owners) can register employees\n    function registerClient(address _resp, string memory _name)\n        public canEmployee\n    {\n        registerUser(_resp, _name, Role.CLIENT);\n    }\n\n    // only employees can access user data\n    function retrieveUser(address _user)\n        public view canEmployee returns(string memory name, Role role, address responsible)\n    {\n        return (users[_user].name, users[_user].role, users[_user].responsible);\n    }\n\n    function registerUser(address _resp, string memory _name, Role _role) private {\n        Strings.validate(_name);\n        User memory newUser;\n        newUser.name = _name;\n        newUser.responsible = _resp;\n        newUser.role = Role(_role);\n        users[msg.sender] = newUser;\n        emit RegisteredNewUser(_name, _role);\n    }\n}",
  "sourcePath": "/Users/fran/ws/block/project/blockchain/contracts/Store.sol",
  "compiler": {
    "name": "solc",
    "version": "0.5.0+commit.1d4f565a.Emscripten.clang"
  },
  "schemaVersion": "3.0.11",
  "updatedAt": "2019-07-31T13:45:36.075Z",
  "devdoc": {
    "methods": {}
  },
  "userdoc": {
    "methods": {}
  }
}